{
  "contractName": "SupplyChain",
  "abi": [
    {
      "inputs": [],
      "name": "items",
      "outputs": [
        {
          "internalType": "uint256",
          "name": "",
          "type": "uint256"
        }
      ],
      "stateMutability": "view",
      "type": "function",
      "constant": true
    },
    {
      "inputs": [
        {
          "internalType": "string",
          "name": "_a",
          "type": "string"
        },
        {
          "internalType": "string",
          "name": "_b",
          "type": "string"
        }
      ],
      "name": "concat",
      "outputs": [
        {
          "internalType": "string",
          "name": "",
          "type": "string"
        }
      ],
      "stateMutability": "pure",
      "type": "function",
      "constant": true
    },
    {
      "inputs": [
        {
          "internalType": "string",
          "name": "_text",
          "type": "string"
        },
        {
          "internalType": "string",
          "name": "_date",
          "type": "string"
        }
      ],
      "name": "addProduct",
      "outputs": [
        {
          "internalType": "bool",
          "name": "",
          "type": "bool"
        }
      ],
      "stateMutability": "nonpayable",
      "type": "function"
    },
    {
      "inputs": [
        {
          "internalType": "uint256",
          "name": "_productId",
          "type": "uint256"
        },
        {
          "internalType": "string",
          "name": "_cdate",
          "type": "string"
        },
        {
          "internalType": "string",
          "name": "_cloc",
          "type": "string"
        }
      ],
      "name": "addState",
      "outputs": [
        {
          "internalType": "string",
          "name": "",
          "type": "string"
        }
      ],
      "stateMutability": "nonpayable",
      "type": "function"
    },
    {
      "inputs": [
        {
          "internalType": "uint256",
          "name": "_productId",
          "type": "uint256"
        }
      ],
      "name": "searchProduct",
      "outputs": [
        {
          "internalType": "string",
          "name": "",
          "type": "string"
        }
      ],
      "stateMutability": "view",
      "type": "function",
      "constant": true
    }
  ],
  "bytecode": "0x6080604052600060015534801561001557600080fd5b5061104f806100256000396000f3fe608060405234801561001057600080fd5b50600436106100575760003560e01c80633cde01b51461005c57806389c19ddb14610103578063a4f80e19146102ce578063c06fad06146104a3578063ca2efb55146104c1575b600080fd5b6100886004803603602081101561007257600080fd5b810190808035906020019092919050505061062b565b6040518080602001828103825283818151815260200191508051906020019080838360005b838110156100c85780820151818401526020810190506100ad565b50505050905090810190601f1680156100f55780820380516001836020036101000a031916815260200191505b509250505060405180910390f35b6102536004803603604081101561011957600080fd5b810190808035906020019064010000000081111561013657600080fd5b82018360208201111561014857600080fd5b8035906020019184600183028401116401000000008311171561016a57600080fd5b91908080601f016020809104026020016040519081016040528093929190818152602001838380828437600081840152601f19601f820116905080830192505050505050509192919290803590602001906401000000008111156101cd57600080fd5b8201836020820111156101df57600080fd5b8035906020019184600183028401116401000000008311171561020157600080fd5b91908080601f016020809104026020016040519081016040528093929190818152602001838380828437600081840152601f19601f820116905080830192505050505050509192919290505050610ae8565b6040518080602001828103825283818151815260200191508051906020019080838360005b83811015610293578082015181840152602081019050610278565b50505050905090810190601f1680156102c05780820380516001836020036101000a031916815260200191505b509250505060405180910390f35b610428600480360360608110156102e457600080fd5b81019080803590602001909291908035906020019064010000000081111561030b57600080fd5b82018360208201111561031d57600080fd5b8035906020019184600183028401116401000000008311171561033f57600080fd5b91908080601f016020809104026020016040519081016040528093929190818152602001838380828437600081840152601f19601f820116905080830192505050505050509192919290803590602001906401000000008111156103a257600080fd5b8201836020820111156103b457600080fd5b803590602001918460018302840111640100000000831117156103d657600080fd5b91908080601f016020809104026020016040519081016040528093929190818152602001838380828437600081840152601f19601f820116905080830192505050505050509192919290505050610c31565b6040518080602001828103825283818151815260200191508051906020019080838360005b8381101561046857808201518184015260208101905061044d565b50505050905090810190601f1680156104955780820380516001836020036101000a031916815260200191505b509250505060405180910390f35b6104ab610de3565b6040518082815260200191505060405180910390f35b610611600480360360408110156104d757600080fd5b81019080803590602001906401000000008111156104f457600080fd5b82018360208201111561050657600080fd5b8035906020019184600183028401116401000000008311171561052857600080fd5b91908080601f016020809104026020016040519081016040528093929190818152602001838380828437600081840152601f19601f8201169050808301925050505050505091929192908035906020019064010000000081111561058b57600080fd5b82018360208201111561059d57600080fd5b803590602001918460018302840111640100000000831117156105bf57600080fd5b91908080601f016020809104026020016040519081016040528093929190818152602001838380828437600081840152601f19601f820116905080830192505050505050509192919290505050610de9565b604051808215151515815260200191505060405180910390f35b60606001548211156106a5576040517f08c379a00000000000000000000000000000000000000000000000000000000081526004018080602001828103825260128152602001807f496e76616c69642070726f64756374206964000000000000000000000000000081525060200191505060405180910390fd5b60606040518060400160405280600e81526020017f50726f64756374204e616d653a200000000000000000000000000000000000008152509050610796816000808681526020019081526020016000206001018054600181600116156101000203166002900480601f01602080910402602001604051908101604052809291908181526020018280546001816001161561010002031660029004801561078c5780601f106107615761010080835404028352916020019161078c565b820191906000526020600020905b81548152906001019060200180831161076f57829003601f168201915b5050505050610ae8565b90506107d7816040518060400160405280601481526020017f3b204d616e756661637475726520446174653a20000000000000000000000000815250610ae8565b9050610890816000808681526020019081526020016000206003018054600181600116156101000203166002900480601f0160208091040260200160405190810160405280929190818152602001828054600181600116156101000203166002900480156108865780601f1061085b57610100808354040283529160200191610886565b820191906000526020600020905b81548152906001019060200180831161086957829003601f168201915b5050505050610ae8565b905060008090505b60008085815260200190815260200160002060040154811015610ade576108f4826040518060400160405280601081526020017f3b2043757272656e7420446174653a2000000000000000000000000000000000815250610ae8565b91506109c18260008087815260200190815260200160002060050160008481526020019081526020016000206001018054600181600116156101000203166002900480601f0160208091040260200160405190810160405280929190818152602001828054600181600116156101000203166002900480156109b75780601f1061098c576101008083540402835291602001916109b7565b820191906000526020600020905b81548152906001019060200180831161099a57829003601f168201915b5050505050610ae8565b9150610a02826040518060400160405280601381526020017f3b2043757272656e74204c6f636174696f6e3a00000000000000000000000000815250610ae8565b9150610acf8260008087815260200190815260200160002060050160008481526020019081526020016000206000018054600181600116156101000203166002900480601f016020809104026020016040519081016040528092919081815260200182805460018160011615610100020316600290048015610ac55780601f10610a9a57610100808354040283529160200191610ac5565b820191906000526020600020905b815481529060010190602001808311610aa857829003601f168201915b5050505050610ae8565b91508080600101915050610898565b5080915050919050565b6060808390506060839050606081518351016040519080825280601f01601f191660200182016040528015610b2c5781602001600182028038833980820191505090505b5090506060819050600080905060008090505b8551811015610bad57858181518110610b5457fe5b602001015160f81c60f81b838380600101945081518110610b7157fe5b60200101907effffffffffffffffffffffffffffffffffffffffffffffffffffffffffffff1916908160001a9053508080600101915050610b3f565b5060008090505b8451811015610c2257848181518110610bc957fe5b602001015160f81c60f81b838380600101945081518110610be657fe5b60200101907effffffffffffffffffffffffffffffffffffffffffffffffffffffffffffff1916908160001a9053508080600101915050610bb4565b50819550505050505092915050565b6060600154841115610cab576040517f08c379a00000000000000000000000000000000000000000000000000000000081526004018080602001828103825260128152602001807f496e76616c69642070726f64756374206964000000000000000000000000000081525060200191505060405180910390fd5b610cb3610ef8565b60405180606001604052808481526020018581526020013373ffffffffffffffffffffffffffffffffffffffff1681525090508060008087815260200190815260200160002060050160008060008981526020019081526020016000206004015481526020019081526020016000206000820151816000019080519060200190610d3e929190610f2f565b506020820151816001019080519060200190610d5b929190610f2f565b5060408201518160020160006101000a81548173ffffffffffffffffffffffffffffffffffffffff021916908373ffffffffffffffffffffffffffffffffffffffff1602179055509050506001600080878152602001908152602001600020600401540160008087815260200190815260200160002060040181905550829150509392505050565b60015481565b6000610df3610faf565b6040518060a001604052803373ffffffffffffffffffffffffffffffffffffffff16815260200185815260200160015481526020018481526020016000815250905080600080600154815260200190815260200160002060008201518160000160006101000a81548173ffffffffffffffffffffffffffffffffffffffff021916908373ffffffffffffffffffffffffffffffffffffffff1602179055506020820151816001019080519060200190610ead929190610f2f565b50604082015181600201556060820151816003019080519060200190610ed4929190610f2f565b50608082015181600401559050506001805401600181905550600191505092915050565b60405180606001604052806060815260200160608152602001600073ffffffffffffffffffffffffffffffffffffffff1681525090565b828054600181600116156101000203166002900490600052602060002090601f016020900481019282601f10610f7057805160ff1916838001178555610f9e565b82800160010185558215610f9e579182015b82811115610f9d578251825591602001919060010190610f82565b5b509050610fab9190610ff4565b5090565b6040518060a00160405280600073ffffffffffffffffffffffffffffffffffffffff168152602001606081526020016000815260200160608152602001600081525090565b61101691905b80821115611012576000816000905550600101610ffa565b5090565b9056fea264697066735822122040deebfe517a287283cc7b386e7257224a82aa2885002cf084c320d8b4dc130b64736f6c63430006000033",
  "source": "pragma solidity >=0.6.0;\r\n\r\ncontract SupplyChain {\r\n    \r\n    //event Added(uint256 index);\r\n    \r\n    struct State{\r\n        string currentloc;\r\n        string currentdate;\r\n        address entity;\r\n    }\r\n    \r\n    struct Product{\r\n        address creator;\r\n        string productName;\r\n        uint256 productId;\r\n        string createdDate;\r\n        uint256 totalStates;\r\n        mapping (uint256 => State) intermediaries;\r\n    }\r\n    \r\n    mapping(uint256 => Product) allProducts;\r\n    uint256 public items = 0;\r\n\r\n    function concat(string memory _a, string memory _b) public pure returns (string memory){\r\n        bytes memory bytes_a = bytes(_a);\r\n        bytes memory bytes_b = bytes(_b);\r\n        string memory length_ab = new string(bytes_a.length + bytes_b.length);\r\n        bytes memory bytes_c = bytes(length_ab);\r\n        uint k = 0;\r\n        for (uint i = 0; i < bytes_a.length; i++) bytes_c[k++] = bytes_a[i];\r\n        for (uint i = 0; i < bytes_b.length; i++) bytes_c[k++] = bytes_b[i];\r\n        return string(bytes_c);\r\n    }\r\n    \r\n    function addProduct(string memory _text, string memory _date) public returns (bool) {\r\n        Product memory _newItem = Product({creator: msg.sender, totalStates: 0,productName: _text, productId: items, createdDate: _date});\r\n        allProducts[items] = _newItem;\r\n        items = items+1;\r\n        //emit Added(items-1);\r\n        return true;\r\n    }\r\n    \r\n    function addState(uint _productId, string memory _cdate, string memory _cloc) public returns (string memory) {\r\n        require(_productId <= items, \"Invalid product id\");\r\n        State memory newState = State({entity: msg.sender, currentdate: _cdate, currentloc: _cloc});\r\n        allProducts[_productId].intermediaries[allProducts[_productId].totalStates] = newState;\r\n        allProducts[_productId].totalStates = allProducts[_productId].totalStates + 1;\r\n        return _cloc;\r\n    }\r\n    function searchProduct(uint _productId) public view returns (string memory) {\r\n        require(_productId<=items, \"Invalid product id\");\r\n        string memory output = \"Product Name: \";\r\n        output = concat(output, allProducts[_productId].productName);\r\n        output = concat(output, \"; Manufacture Date: \");\r\n        output = concat(output, allProducts[_productId].createdDate);\r\n        for (uint256 j = 0; j<allProducts[_productId].totalStates; j++){\r\n            output = concat(output, \"; Current Date: \");\r\n            output = concat(output, allProducts[_productId].intermediaries[j].currentdate);\r\n            output = concat(output, \"; Current Location:\");\r\n            output = concat(output, allProducts[_productId].intermediaries[j].currentloc);\r\n        }\r\n        return output;\r\n    }\r\n\r\n}",
  "sourcePath": "G:/MCA/4th/NetworkSec/SupplyChain/contracts/SupplyChain.sol",
  "compiler": {
    "name": "solc",
    "version": "0.6.0+commit.26b70077.Emscripten.clang"
  },
  "schemaVersion": "3.3.4",
  "updatedAt": "2021-04-10T07:22:13.752Z",
  "networkType": "ethereum",
  "devdoc": {
    "methods": {}
  },
  "userdoc": {
    "methods": {}
  }
}